{
  "contractName": "StarNotary",
  "abi": [
    {
      "inputs": [],
      "stateMutability": "nonpayable",
      "type": "constructor"
    },
    {
      "anonymous": false,
      "inputs": [
        {
          "indexed": true,
          "internalType": "address",
          "name": "owner",
          "type": "address"
        },
        {
          "indexed": true,
          "internalType": "address",
          "name": "approved",
          "type": "address"
        },
        {
          "indexed": true,
          "internalType": "uint256",
          "name": "tokenId",
          "type": "uint256"
        }
      ],
      "name": "Approval",
      "type": "event"
    },
    {
      "anonymous": false,
      "inputs": [
        {
          "indexed": true,
          "internalType": "address",
          "name": "owner",
          "type": "address"
        },
        {
          "indexed": true,
          "internalType": "address",
          "name": "operator",
          "type": "address"
        },
        {
          "indexed": false,
          "internalType": "bool",
          "name": "approved",
          "type": "bool"
        }
      ],
      "name": "ApprovalForAll",
      "type": "event"
    },
    {
      "anonymous": false,
      "inputs": [
        {
          "indexed": true,
          "internalType": "address",
          "name": "from",
          "type": "address"
        },
        {
          "indexed": true,
          "internalType": "address",
          "name": "to",
          "type": "address"
        },
        {
          "indexed": true,
          "internalType": "uint256",
          "name": "tokenId",
          "type": "uint256"
        }
      ],
      "name": "Transfer",
      "type": "event"
    },
    {
      "inputs": [
        {
          "internalType": "address",
          "name": "to",
          "type": "address"
        },
        {
          "internalType": "uint256",
          "name": "tokenId",
          "type": "uint256"
        }
      ],
      "name": "approve",
      "outputs": [],
      "stateMutability": "nonpayable",
      "type": "function"
    },
    {
      "inputs": [
        {
          "internalType": "address",
          "name": "owner",
          "type": "address"
        }
      ],
      "name": "balanceOf",
      "outputs": [
        {
          "internalType": "uint256",
          "name": "",
          "type": "uint256"
        }
      ],
      "stateMutability": "view",
      "type": "function",
      "constant": true
    },
    {
      "inputs": [
        {
          "internalType": "uint256",
          "name": "tokenId",
          "type": "uint256"
        }
      ],
      "name": "getApproved",
      "outputs": [
        {
          "internalType": "address",
          "name": "",
          "type": "address"
        }
      ],
      "stateMutability": "view",
      "type": "function",
      "constant": true
    },
    {
      "inputs": [
        {
          "internalType": "address",
          "name": "owner",
          "type": "address"
        },
        {
          "internalType": "address",
          "name": "operator",
          "type": "address"
        }
      ],
      "name": "isApprovedForAll",
      "outputs": [
        {
          "internalType": "bool",
          "name": "",
          "type": "bool"
        }
      ],
      "stateMutability": "view",
      "type": "function",
      "constant": true
    },
    {
      "inputs": [],
      "name": "name",
      "outputs": [
        {
          "internalType": "string",
          "name": "",
          "type": "string"
        }
      ],
      "stateMutability": "view",
      "type": "function",
      "constant": true
    },
    {
      "inputs": [
        {
          "internalType": "uint256",
          "name": "tokenId",
          "type": "uint256"
        }
      ],
      "name": "ownerOf",
      "outputs": [
        {
          "internalType": "address",
          "name": "",
          "type": "address"
        }
      ],
      "stateMutability": "view",
      "type": "function",
      "constant": true
    },
    {
      "inputs": [
        {
          "internalType": "address",
          "name": "from",
          "type": "address"
        },
        {
          "internalType": "address",
          "name": "to",
          "type": "address"
        },
        {
          "internalType": "uint256",
          "name": "tokenId",
          "type": "uint256"
        }
      ],
      "name": "safeTransferFrom",
      "outputs": [],
      "stateMutability": "nonpayable",
      "type": "function"
    },
    {
      "inputs": [
        {
          "internalType": "address",
          "name": "from",
          "type": "address"
        },
        {
          "internalType": "address",
          "name": "to",
          "type": "address"
        },
        {
          "internalType": "uint256",
          "name": "tokenId",
          "type": "uint256"
        },
        {
          "internalType": "bytes",
          "name": "data",
          "type": "bytes"
        }
      ],
      "name": "safeTransferFrom",
      "outputs": [],
      "stateMutability": "nonpayable",
      "type": "function"
    },
    {
      "inputs": [
        {
          "internalType": "address",
          "name": "operator",
          "type": "address"
        },
        {
          "internalType": "bool",
          "name": "approved",
          "type": "bool"
        }
      ],
      "name": "setApprovalForAll",
      "outputs": [],
      "stateMutability": "nonpayable",
      "type": "function"
    },
    {
      "inputs": [
        {
          "internalType": "uint256",
          "name": "",
          "type": "uint256"
        }
      ],
      "name": "starsForSale",
      "outputs": [
        {
          "internalType": "uint256",
          "name": "",
          "type": "uint256"
        }
      ],
      "stateMutability": "view",
      "type": "function",
      "constant": true
    },
    {
      "inputs": [
        {
          "internalType": "bytes4",
          "name": "interfaceId",
          "type": "bytes4"
        }
      ],
      "name": "supportsInterface",
      "outputs": [
        {
          "internalType": "bool",
          "name": "",
          "type": "bool"
        }
      ],
      "stateMutability": "view",
      "type": "function",
      "constant": true
    },
    {
      "inputs": [],
      "name": "symbol",
      "outputs": [
        {
          "internalType": "string",
          "name": "",
          "type": "string"
        }
      ],
      "stateMutability": "view",
      "type": "function",
      "constant": true
    },
    {
      "inputs": [
        {
          "internalType": "uint256",
          "name": "",
          "type": "uint256"
        }
      ],
      "name": "tokenIdToStarInfo",
      "outputs": [
        {
          "internalType": "string",
          "name": "name",
          "type": "string"
        }
      ],
      "stateMutability": "view",
      "type": "function",
      "constant": true
    },
    {
      "inputs": [
        {
          "internalType": "uint256",
          "name": "tokenId",
          "type": "uint256"
        }
      ],
      "name": "tokenURI",
      "outputs": [
        {
          "internalType": "string",
          "name": "",
          "type": "string"
        }
      ],
      "stateMutability": "view",
      "type": "function",
      "constant": true
    },
    {
      "inputs": [
        {
          "internalType": "address",
          "name": "from",
          "type": "address"
        },
        {
          "internalType": "address",
          "name": "to",
          "type": "address"
        },
        {
          "internalType": "uint256",
          "name": "tokenId",
          "type": "uint256"
        }
      ],
      "name": "transferFrom",
      "outputs": [],
      "stateMutability": "nonpayable",
      "type": "function"
    },
    {
      "inputs": [
        {
          "internalType": "string",
          "name": "_name",
          "type": "string"
        },
        {
          "internalType": "uint256",
          "name": "_tokenId",
          "type": "uint256"
        }
      ],
      "name": "createStar",
      "outputs": [],
      "stateMutability": "nonpayable",
      "type": "function"
    },
    {
      "inputs": [
        {
          "internalType": "uint256",
          "name": "_tokenId",
          "type": "uint256"
        },
        {
          "internalType": "uint256",
          "name": "_price",
          "type": "uint256"
        }
      ],
      "name": "putStarUpForSale",
      "outputs": [],
      "stateMutability": "nonpayable",
      "type": "function"
    },
    {
      "inputs": [
        {
          "internalType": "uint256",
          "name": "_tokenId",
          "type": "uint256"
        }
      ],
      "name": "buyStar",
      "outputs": [],
      "stateMutability": "payable",
      "type": "function",
      "payable": true
    }
  ],
  "bytecode": "0x60806040523480156200001157600080fd5b506040518060400160405280600481526020017f6e616d65000000000000000000000000000000000000000000000000000000008152506040518060400160405280600681526020017f73796d626f6c0000000000000000000000000000000000000000000000000000815250816000908051906020019062000096929190620000b8565b508060019080519060200190620000af929190620000b8565b505050620001cc565b828054620000c69062000197565b90600052602060002090601f016020900481019282620000ea576000855562000136565b82601f106200010557805160ff191683800117855562000136565b8280016001018555821562000136579182015b828111156200013557825182559160200191906001019062000118565b5b50905062000145919062000149565b5090565b5b80821115620001645760008160009055506001016200014a565b5090565b7f4e487b7100000000000000000000000000000000000000000000000000000000600052602260045260246000fd5b60006002820490506001821680620001b057607f821691505b602082108103620001c657620001c562000168565b5b50919050565b612c7180620001dc6000396000f3fe6080604052600436106101095760003560e01c806342842e0e116100955780639697c0a1116100645780639697c0a114610392578063a22cb465146103bb578063b88d4fde146103e4578063c87b56dd1461040d578063e985e9c51461044a57610109565b806342842e0e146102c45780636352211e146102ed57806370a082311461032a57806395d89b411461036757610109565b8063095ea7b3116100dc578063095ea7b3146101f05780631967fd981461021957806323b872dd146102565780632f1c34ef1461027f578063316a43611461029b57610109565b806301ffc9a71461010e5780630564b1301461014b57806306fdde0314610188578063081812fc146101b3575b600080fd5b34801561011a57600080fd5b5061013560048036038101906101309190611b2b565b610487565b6040516101429190611b73565b60405180910390f35b34801561015757600080fd5b50610172600480360381019061016d9190611bc4565b610569565b60405161017f9190611c00565b60405180910390f35b34801561019457600080fd5b5061019d610581565b6040516101aa9190611cb4565b60405180910390f35b3480156101bf57600080fd5b506101da60048036038101906101d59190611bc4565b610613565b6040516101e79190611d17565b60405180910390f35b3480156101fc57600080fd5b5061021760048036038101906102129190611d5e565b610659565b005b34801561022557600080fd5b50610240600480360381019061023b9190611bc4565b610770565b60405161024d9190611cb4565b60405180910390f35b34801561026257600080fd5b5061027d60048036038101906102789190611d9e565b610816565b005b61029960048036038101906102949190611bc4565b610876565b005b3480156102a757600080fd5b506102c260048036038101906102bd9190611df1565b6109f3565b005b3480156102d057600080fd5b506102eb60048036038101906102e69190611d9e565b610a85565b005b3480156102f957600080fd5b50610314600480360381019061030f9190611bc4565b610aa5565b6040516103219190611d17565b60405180910390f35b34801561033657600080fd5b50610351600480360381019061034c9190611e31565b610b56565b60405161035e9190611c00565b60405180910390f35b34801561037357600080fd5b5061037c610c0d565b6040516103899190611cb4565b60405180910390f35b34801561039e57600080fd5b506103b960048036038101906103b49190611f93565b610c9f565b005b3480156103c757600080fd5b506103e260048036038101906103dd919061201b565b610cf5565b005b3480156103f057600080fd5b5061040b600480360381019061040691906120fc565b610d0b565b005b34801561041957600080fd5b50610434600480360381019061042f9190611bc4565b610d6d565b6040516104419190611cb4565b60405180910390f35b34801561045657600080fd5b50610471600480360381019061046c919061217f565b610dd5565b60405161047e9190611b73565b60405180910390f35b60007f80ac58cd000000000000000000000000000000000000000000000000000000007bffffffffffffffffffffffffffffffffffffffffffffffffffffffff1916827bffffffffffffffffffffffffffffffffffffffffffffffffffffffff1916148061055257507f5b5e139f000000000000000000000000000000000000000000000000000000007bffffffffffffffffffffffffffffffffffffffffffffffffffffffff1916827bffffffffffffffffffffffffffffffffffffffffffffffffffffffff1916145b80610562575061056182610e69565b5b9050919050565b60076020528060005260406000206000915090505481565b606060008054610590906121ee565b80601f01602080910402602001604051908101604052809291908181526020018280546105bc906121ee565b80156106095780601f106105de57610100808354040283529160200191610609565b820191906000526020600020905b8154815290600101906020018083116105ec57829003601f168201915b5050505050905090565b600061061e82610ed3565b6004600083815260200190815260200160002060009054906101000a900473ffffffffffffffffffffffffffffffffffffffff169050919050565b600061066482610aa5565b90508073ffffffffffffffffffffffffffffffffffffffff168373ffffffffffffffffffffffffffffffffffffffff16036106d4576040517f08c379a00000000000000000000000000000000000000000000000000000000081526004016106cb90612291565b60405180910390fd5b8073ffffffffffffffffffffffffffffffffffffffff166106f3610f1e565b73ffffffffffffffffffffffffffffffffffffffff16148061072257506107218161071c610f1e565b610dd5565b5b610761576040517f08c379a000000000000000000000000000000000000000000000000000000000815260040161075890612323565b60405180910390fd5b61076b8383610f26565b505050565b6006602052806000526040600020600091509050806000018054610793906121ee565b80601f01602080910402602001604051908101604052809291908181526020018280546107bf906121ee565b801561080c5780601f106107e15761010080835404028352916020019161080c565b820191906000526020600020905b8154815290600101906020018083116107ef57829003601f168201915b5050505050905081565b610827610821610f1e565b82610fdf565b610866576040517f08c379a000000000000000000000000000000000000000000000000000000000815260040161085d906123b5565b60405180910390fd5b610871838383611074565b505050565b60006007600083815260200190815260200160002054116108cc576040517f08c379a00000000000000000000000000000000000000000000000000000000081526004016108c390612421565b60405180910390fd5b60006007600083815260200190815260200160002054905060006108ef83610aa5565b9050813411610933576040517f08c379a000000000000000000000000000000000000000000000000000000000815260040161092a9061248d565b60405180910390fd5b61093e813385610816565b6000610949826112da565b90508073ffffffffffffffffffffffffffffffffffffffff166108fc849081150290604051600060405180830381858888f19350505050158015610991573d6000803e3d6000fd5b50823411156109ed573373ffffffffffffffffffffffffffffffffffffffff166108fc84346109c091906124dc565b9081150290604051600060405180830381858888f193505050501580156109eb573d6000803e3d6000fd5b505b50505050565b3373ffffffffffffffffffffffffffffffffffffffff16610a1383610aa5565b73ffffffffffffffffffffffffffffffffffffffff1614610a69576040517f08c379a0000000000000000000000000000000000000000000000000000000008152600401610a6090612582565b60405180910390fd5b8060076000848152602001908152602001600020819055505050565b610aa083838360405180602001604052806000815250610d0b565b505050565b6000806002600084815260200190815260200160002060009054906101000a900473ffffffffffffffffffffffffffffffffffffffff169050600073ffffffffffffffffffffffffffffffffffffffff168173ffffffffffffffffffffffffffffffffffffffff1603610b4d576040517f08c379a0000000000000000000000000000000000000000000000000000000008152600401610b44906125ee565b60405180910390fd5b80915050919050565b60008073ffffffffffffffffffffffffffffffffffffffff168273ffffffffffffffffffffffffffffffffffffffff1603610bc6576040517f08c379a0000000000000000000000000000000000000000000000000000000008152600401610bbd90612680565b60405180910390fd5b600360008373ffffffffffffffffffffffffffffffffffffffff1673ffffffffffffffffffffffffffffffffffffffff168152602001908152602001600020549050919050565b606060018054610c1c906121ee565b80601f0160208091040260200160405190810160405280929190818152602001828054610c48906121ee565b8015610c955780601f10610c6a57610100808354040283529160200191610c95565b820191906000526020600020905b815481529060010190602001808311610c7857829003601f168201915b5050505050905090565b6000604051806020016040528084815250905080600660008481526020019081526020016000206000820151816000019080519060200190610ce2929190611a1c565b50905050610cf033836112e4565b505050565b610d07610d00610f1e565b83836114bd565b5050565b610d1c610d16610f1e565b83610fdf565b610d5b576040517f08c379a0000000000000000000000000000000000000000000000000000000008152600401610d52906123b5565b60405180910390fd5b610d6784848484611629565b50505050565b6060610d7882610ed3565b6000610d82611685565b90506000815111610da25760405180602001604052806000815250610dcd565b80610dac8461169c565b604051602001610dbd9291906126dc565b6040516020818303038152906040525b915050919050565b6000600560008473ffffffffffffffffffffffffffffffffffffffff1673ffffffffffffffffffffffffffffffffffffffff16815260200190815260200160002060008373ffffffffffffffffffffffffffffffffffffffff1673ffffffffffffffffffffffffffffffffffffffff16815260200190815260200160002060009054906101000a900460ff16905092915050565b60007f01ffc9a7000000000000000000000000000000000000000000000000000000007bffffffffffffffffffffffffffffffffffffffffffffffffffffffff1916827bffffffffffffffffffffffffffffffffffffffffffffffffffffffff1916149050919050565b610edc816117fc565b610f1b576040517f08c379a0000000000000000000000000000000000000000000000000000000008152600401610f12906125ee565b60405180910390fd5b50565b600033905090565b816004600083815260200190815260200160002060006101000a81548173ffffffffffffffffffffffffffffffffffffffff021916908373ffffffffffffffffffffffffffffffffffffffff160217905550808273ffffffffffffffffffffffffffffffffffffffff16610f9983610aa5565b73ffffffffffffffffffffffffffffffffffffffff167f8c5be1e5ebec7d5bd14f71427d1e84f3dd0314c0f7b2291e5b200ac8c7c3b92560405160405180910390a45050565b600080610feb83610aa5565b90508073ffffffffffffffffffffffffffffffffffffffff168473ffffffffffffffffffffffffffffffffffffffff16148061102d575061102c8185610dd5565b5b8061106b57508373ffffffffffffffffffffffffffffffffffffffff1661105384610613565b73ffffffffffffffffffffffffffffffffffffffff16145b91505092915050565b8273ffffffffffffffffffffffffffffffffffffffff1661109482610aa5565b73ffffffffffffffffffffffffffffffffffffffff16146110ea576040517f08c379a00000000000000000000000000000000000000000000000000000000081526004016110e190612772565b60405180910390fd5b600073ffffffffffffffffffffffffffffffffffffffff168273ffffffffffffffffffffffffffffffffffffffff1603611159576040517f08c379a000000000000000000000000000000000000000000000000000000000815260040161115090612804565b60405180910390fd5b611164838383611868565b61116f600082610f26565b6001600360008573ffffffffffffffffffffffffffffffffffffffff1673ffffffffffffffffffffffffffffffffffffffff16815260200190815260200160002060008282546111bf91906124dc565b925050819055506001600360008473ffffffffffffffffffffffffffffffffffffffff1673ffffffffffffffffffffffffffffffffffffffff16815260200190815260200160002060008282546112169190612824565b92505081905550816002600083815260200190815260200160002060006101000a81548173ffffffffffffffffffffffffffffffffffffffff021916908373ffffffffffffffffffffffffffffffffffffffff160217905550808273ffffffffffffffffffffffffffffffffffffffff168473ffffffffffffffffffffffffffffffffffffffff167fddf252ad1be2c89b69c2b068fc378daa952ba7f163c4a11628f55a4df523b3ef60405160405180910390a46112d583838361186d565b505050565b6000819050919050565b600073ffffffffffffffffffffffffffffffffffffffff168273ffffffffffffffffffffffffffffffffffffffff1603611353576040517f08c379a000000000000000000000000000000000000000000000000000000000815260040161134a906128c6565b60405180910390fd5b61135c816117fc565b1561139c576040517f08c379a000000000000000000000000000000000000000000000000000000000815260040161139390612932565b60405180910390fd5b6113a860008383611868565b6001600360008473ffffffffffffffffffffffffffffffffffffffff1673ffffffffffffffffffffffffffffffffffffffff16815260200190815260200160002060008282546113f89190612824565b92505081905550816002600083815260200190815260200160002060006101000a81548173ffffffffffffffffffffffffffffffffffffffff021916908373ffffffffffffffffffffffffffffffffffffffff160217905550808273ffffffffffffffffffffffffffffffffffffffff16600073ffffffffffffffffffffffffffffffffffffffff167fddf252ad1be2c89b69c2b068fc378daa952ba7f163c4a11628f55a4df523b3ef60405160405180910390a46114b96000838361186d565b5050565b8173ffffffffffffffffffffffffffffffffffffffff168373ffffffffffffffffffffffffffffffffffffffff160361152b576040517f08c379a00000000000000000000000000000000000000000000000000000000081526004016115229061299e565b60405180910390fd5b80600560008573ffffffffffffffffffffffffffffffffffffffff1673ffffffffffffffffffffffffffffffffffffffff16815260200190815260200160002060008473ffffffffffffffffffffffffffffffffffffffff1673ffffffffffffffffffffffffffffffffffffffff16815260200190815260200160002060006101000a81548160ff0219169083151502179055508173ffffffffffffffffffffffffffffffffffffffff168373ffffffffffffffffffffffffffffffffffffffff167f17307eab39ab6107e8899845ad3d59bd9653f200f220920489ca2b5937696c318360405161161c9190611b73565b60405180910390a3505050565b611634848484611074565b61164084848484611872565b61167f576040517f08c379a000000000000000000000000000000000000000000000000000000000815260040161167690612a30565b60405180910390fd5b50505050565b606060405180602001604052806000815250905090565b6060600082036116e3576040518060400160405280600181526020017f300000000000000000000000000000000000000000000000000000000000000081525090506117f7565b600082905060005b600082146117155780806116fe90612a50565b915050600a8261170e9190612ac7565b91506116eb565b60008167ffffffffffffffff81111561173157611730611e68565b5b6040519080825280601f01601f1916602001820160405280156117635781602001600182028036833780820191505090505b5090505b600085146117f05760018261177c91906124dc565b9150600a8561178b9190612af8565b60306117979190612824565b60f81b8183815181106117ad576117ac612b29565b5b60200101907effffffffffffffffffffffffffffffffffffffffffffffffffffffffffffff1916908160001a905350600a856117e99190612ac7565b9450611767565b8093505050505b919050565b60008073ffffffffffffffffffffffffffffffffffffffff166002600084815260200190815260200160002060009054906101000a900473ffffffffffffffffffffffffffffffffffffffff1673ffffffffffffffffffffffffffffffffffffffff1614159050919050565b505050565b505050565b60006118938473ffffffffffffffffffffffffffffffffffffffff166119f9565b156119ec578373ffffffffffffffffffffffffffffffffffffffff1663150b7a026118bc610f1e565b8786866040518563ffffffff1660e01b81526004016118de9493929190612bad565b6020604051808303816000875af192505050801561191a57506040513d601f19601f820116820180604052508101906119179190612c0e565b60015b61199c573d806000811461194a576040519150601f19603f3d011682016040523d82523d6000602084013e61194f565b606091505b506000815103611994576040517f08c379a000000000000000000000000000000000000000000000000000000000815260040161198b90612a30565b60405180910390fd5b805181602001fd5b63150b7a0260e01b7bffffffffffffffffffffffffffffffffffffffffffffffffffffffff1916817bffffffffffffffffffffffffffffffffffffffffffffffffffffffff1916149150506119f1565b600190505b949350505050565b6000808273ffffffffffffffffffffffffffffffffffffffff163b119050919050565b828054611a28906121ee565b90600052602060002090601f016020900481019282611a4a5760008555611a91565b82601f10611a6357805160ff1916838001178555611a91565b82800160010185558215611a91579182015b82811115611a90578251825591602001919060010190611a75565b5b509050611a9e9190611aa2565b5090565b5b80821115611abb576000816000905550600101611aa3565b5090565b6000604051905090565b600080fd5b600080fd5b60007fffffffff0000000000000000000000000000000000000000000000000000000082169050919050565b611b0881611ad3565b8114611b1357600080fd5b50565b600081359050611b2581611aff565b92915050565b600060208284031215611b4157611b40611ac9565b5b6000611b4f84828501611b16565b91505092915050565b60008115159050919050565b611b6d81611b58565b82525050565b6000602082019050611b886000830184611b64565b92915050565b6000819050919050565b611ba181611b8e565b8114611bac57600080fd5b50565b600081359050611bbe81611b98565b92915050565b600060208284031215611bda57611bd9611ac9565b5b6000611be884828501611baf565b91505092915050565b611bfa81611b8e565b82525050565b6000602082019050611c156000830184611bf1565b92915050565b600081519050919050565b600082825260208201905092915050565b60005b83811015611c55578082015181840152602081019050611c3a565b83811115611c64576000848401525b50505050565b6000601f19601f8301169050919050565b6000611c8682611c1b565b611c908185611c26565b9350611ca0818560208601611c37565b611ca981611c6a565b840191505092915050565b60006020820190508181036000830152611cce8184611c7b565b905092915050565b600073ffffffffffffffffffffffffffffffffffffffff82169050919050565b6000611d0182611cd6565b9050919050565b611d1181611cf6565b82525050565b6000602082019050611d2c6000830184611d08565b92915050565b611d3b81611cf6565b8114611d4657600080fd5b50565b600081359050611d5881611d32565b92915050565b60008060408385031215611d7557611d74611ac9565b5b6000611d8385828601611d49565b9250506020611d9485828601611baf565b9150509250929050565b600080600060608486031215611db757611db6611ac9565b5b6000611dc586828701611d49565b9350506020611dd686828701611d49565b9250506040611de786828701611baf565b9150509250925092565b60008060408385031215611e0857611e07611ac9565b5b6000611e1685828601611baf565b9250506020611e2785828601611baf565b9150509250929050565b600060208284031215611e4757611e46611ac9565b5b6000611e5584828501611d49565b91505092915050565b600080fd5b600080fd5b7f4e487b7100000000000000000000000000000000000000000000000000000000600052604160045260246000fd5b611ea082611c6a565b810181811067ffffffffffffffff82111715611ebf57611ebe611e68565b5b80604052505050565b6000611ed2611abf565b9050611ede8282611e97565b919050565b600067ffffffffffffffff821115611efe57611efd611e68565b5b611f0782611c6a565b9050602081019050919050565b82818337600083830152505050565b6000611f36611f3184611ee3565b611ec8565b905082815260208101848484011115611f5257611f51611e63565b5b611f5d848285611f14565b509392505050565b600082601f830112611f7a57611f79611e5e565b5b8135611f8a848260208601611f23565b91505092915050565b60008060408385031215611faa57611fa9611ac9565b5b600083013567ffffffffffffffff811115611fc857611fc7611ace565b5b611fd485828601611f65565b9250506020611fe585828601611baf565b9150509250929050565b611ff881611b58565b811461200357600080fd5b50565b60008135905061201581611fef565b92915050565b6000806040838503121561203257612031611ac9565b5b600061204085828601611d49565b925050602061205185828601612006565b9150509250929050565b600067ffffffffffffffff82111561207657612075611e68565b5b61207f82611c6a565b9050602081019050919050565b600061209f61209a8461205b565b611ec8565b9050828152602081018484840111156120bb576120ba611e63565b5b6120c6848285611f14565b509392505050565b600082601f8301126120e3576120e2611e5e565b5b81356120f384826020860161208c565b91505092915050565b6000806000806080858703121561211657612115611ac9565b5b600061212487828801611d49565b945050602061213587828801611d49565b935050604061214687828801611baf565b925050606085013567ffffffffffffffff81111561216757612166611ace565b5b612173878288016120ce565b91505092959194509250565b6000806040838503121561219657612195611ac9565b5b60006121a485828601611d49565b92505060206121b585828601611d49565b9150509250929050565b7f4e487b7100000000000000000000000000000000000000000000000000000000600052602260045260246000fd5b6000600282049050600182168061220657607f821691505b602082108103612219576122186121bf565b5b50919050565b7f4552433732313a20617070726f76616c20746f2063757272656e74206f776e6560008201527f7200000000000000000000000000000000000000000000000000000000000000602082015250565b600061227b602183611c26565b91506122868261221f565b604082019050919050565b600060208201905081810360008301526122aa8161226e565b9050919050565b7f4552433732313a20617070726f76652063616c6c6572206973206e6f7420746f60008201527f6b656e206f776e6572206e6f7220617070726f76656420666f7220616c6c0000602082015250565b600061230d603e83611c26565b9150612318826122b1565b604082019050919050565b6000602082019050818103600083015261233c81612300565b9050919050565b7f4552433732313a2063616c6c6572206973206e6f7420746f6b656e206f776e6560008201527f72206e6f7220617070726f766564000000000000000000000000000000000000602082015250565b600061239f602e83611c26565b91506123aa82612343565b604082019050919050565b600060208201905081810360008301526123ce81612392565b9050919050565b7f54686520537461722073686f756c6420626520757020666f722073616c650000600082015250565b600061240b601e83611c26565b9150612416826123d5565b602082019050919050565b6000602082019050818103600083015261243a816123fe565b9050919050565b7f596f75206e65656420746f206861766520656e6f756768204574686572000000600082015250565b6000612477601d83611c26565b915061248282612441565b602082019050919050565b600060208201905081810360008301526124a68161246a565b9050919050565b7f4e487b7100000000000000000000000000000000000000000000000000000000600052601160045260246000fd5b60006124e782611b8e565b91506124f283611b8e565b925082821015612505576125046124ad565b5b828203905092915050565b7f596f752063616e27742073616c6520746865205374617220796f7520646f6e2760008201527f74206f776e656400000000000000000000000000000000000000000000000000602082015250565b600061256c602783611c26565b915061257782612510565b604082019050919050565b6000602082019050818103600083015261259b8161255f565b9050919050565b7f4552433732313a20696e76616c696420746f6b656e2049440000000000000000600082015250565b60006125d8601883611c26565b91506125e3826125a2565b602082019050919050565b60006020820190508181036000830152612607816125cb565b9050919050565b7f4552433732313a2061646472657373207a65726f206973206e6f74206120766160008201527f6c6964206f776e65720000000000000000000000000000000000000000000000602082015250565b600061266a602983611c26565b91506126758261260e565b604082019050919050565b600060208201905081810360008301526126998161265d565b9050919050565b600081905092915050565b60006126b682611c1b565b6126c081856126a0565b93506126d0818560208601611c37565b80840191505092915050565b60006126e882856126ab565b91506126f482846126ab565b91508190509392505050565b7f4552433732313a207472616e736665722066726f6d20696e636f72726563742060008201527f6f776e6572000000000000000000000000000000000000000000000000000000602082015250565b600061275c602583611c26565b915061276782612700565b604082019050919050565b6000602082019050818103600083015261278b8161274f565b9050919050565b7f4552433732313a207472616e7366657220746f20746865207a65726f2061646460008201527f7265737300000000000000000000000000000000000000000000000000000000602082015250565b60006127ee602483611c26565b91506127f982612792565b604082019050919050565b6000602082019050818103600083015261281d816127e1565b9050919050565b600061282f82611b8e565b915061283a83611b8e565b9250827fffffffffffffffffffffffffffffffffffffffffffffffffffffffffffffffff0382111561286f5761286e6124ad565b5b828201905092915050565b7f4552433732313a206d696e7420746f20746865207a65726f2061646472657373600082015250565b60006128b0602083611c26565b91506128bb8261287a565b602082019050919050565b600060208201905081810360008301526128df816128a3565b9050919050565b7f4552433732313a20746f6b656e20616c7265616479206d696e74656400000000600082015250565b600061291c601c83611c26565b9150612927826128e6565b602082019050919050565b6000602082019050818103600083015261294b8161290f565b9050919050565b7f4552433732313a20617070726f766520746f2063616c6c657200000000000000600082015250565b6000612988601983611c26565b915061299382612952565b602082019050919050565b600060208201905081810360008301526129b78161297b565b9050919050565b7f4552433732313a207472616e7366657220746f206e6f6e20455243373231526560008201527f63656976657220696d706c656d656e7465720000000000000000000000000000602082015250565b6000612a1a603283611c26565b9150612a25826129be565b604082019050919050565b60006020820190508181036000830152612a4981612a0d565b9050919050565b6000612a5b82611b8e565b91507fffffffffffffffffffffffffffffffffffffffffffffffffffffffffffffffff8203612a8d57612a8c6124ad565b5b600182019050919050565b7f4e487b7100000000000000000000000000000000000000000000000000000000600052601260045260246000fd5b6000612ad282611b8e565b9150612add83611b8e565b925082612aed57612aec612a98565b5b828204905092915050565b6000612b0382611b8e565b9150612b0e83611b8e565b925082612b1e57612b1d612a98565b5b828206905092915050565b7f4e487b7100000000000000000000000000000000000000000000000000000000600052603260045260246000fd5b600081519050919050565b600082825260208201905092915050565b6000612b7f82612b58565b612b898185612b63565b9350612b99818560208601611c37565b612ba281611c6a565b840191505092915050565b6000608082019050612bc26000830187611d08565b612bcf6020830186611d08565b612bdc6040830185611bf1565b8181036060830152612bee8184612b74565b905095945050505050565b600081519050612c0881611aff565b92915050565b600060208284031215612c2457612c23611ac9565b5b6000612c3284828501612bf9565b9150509291505056fea2646970667358221220455e26013ffdc17c2153b73cff82bdb9fa558a3513edae93494f8e021b5184b364736f6c634300080e0033",
  "immutableReferences": {},
  "source": "pragma solidity ^0.8.2;\n\nimport \"@openzeppelin/contracts/token/ERC721/ERC721.sol\";\n\ncontract StarNotary is ERC721 {\n\n    constructor() ERC721(\"name\", \"symbol\") {\n    }\n\n    struct Star {\n        string name;\n    }\n\n    mapping(uint256 => Star) public tokenIdToStarInfo;\n    mapping(uint256 => uint256) public starsForSale;\n\n\n    // Create Star using the Struct\n    function createStar(string memory _name, uint256 _tokenId) public { // Passing the name and tokenId as a parameters\n        Star memory newStar = Star(_name); // Star is an struct so we are creating a new Star\n        tokenIdToStarInfo[_tokenId] = newStar; // Creating in memory the Star -> tokenId mapping\n        _mint(msg.sender, _tokenId); // _mint assign the the star with _tokenId to the sender address (ownership)\n    }\n\n    // Putting an Star for sale (Adding the star tokenid into the mapping starsForSale, first verify that the sender is the owner)\n    function putStarUpForSale(uint256 _tokenId, uint256 _price) public {\n        require(ownerOf(_tokenId) == msg.sender, \"You can't sale the Star you don't owned\");\n        starsForSale[_tokenId] = _price;\n    }\n\n\n    // Function that allows you to convert an address into a payable address\n    function _make_payable(address x) internal pure returns (address payable) {\n        return payable(address((uint160(x))));\n    }\n\n    function buyStar(uint256 _tokenId) public  payable {\n        require(starsForSale[_tokenId] > 0, \"The Star should be up for sale\");\n        uint256 starCost = starsForSale[_tokenId];\n        address ownerAddress = ownerOf(_tokenId);\n        require(msg.value > starCost, \"You need to have enough Ether\");\n        transferFrom(ownerAddress, msg.sender, _tokenId); // We can't use _addTokenTo or_removeTokenFrom functions, now we have to use _transferFrom\n        address payable ownerAddressPayable = _make_payable(ownerAddress); // We need to make this conversion to be able to use transfer() function to transfer ethers\n        ownerAddressPayable.transfer(starCost);\n        if(msg.value > starCost) {\n            payable(msg.sender).transfer(msg.value - starCost);\n        }\n    }\n\n}",
  "sourcePath": "/Users/lukas/projects/StarNotaryTruffle/truffle/contracts/StarNotary.sol",
  "compiler": {
    "name": "solc",
    "version": "0.8.14+commit.80d49f37.Emscripten.clang"
  },
  "schemaVersion": "3.4.5",
  "updatedAt": "2022-10-27T11:55:28.880Z",
  "networkType": "ethereum",
  "devdoc": {
    "kind": "dev",
    "methods": {
      "approve(address,uint256)": {
        "details": "See {IERC721-approve}."
      },
      "balanceOf(address)": {
        "details": "See {IERC721-balanceOf}."
      },
      "getApproved(uint256)": {
        "details": "See {IERC721-getApproved}."
      },
      "isApprovedForAll(address,address)": {
        "details": "See {IERC721-isApprovedForAll}."
      },
      "name()": {
        "details": "See {IERC721Metadata-name}."
      },
      "ownerOf(uint256)": {
        "details": "See {IERC721-ownerOf}."
      },
      "safeTransferFrom(address,address,uint256)": {
        "details": "See {IERC721-safeTransferFrom}."
      },
      "safeTransferFrom(address,address,uint256,bytes)": {
        "details": "See {IERC721-safeTransferFrom}."
      },
      "setApprovalForAll(address,bool)": {
        "details": "See {IERC721-setApprovalForAll}."
      },
      "supportsInterface(bytes4)": {
        "details": "See {IERC165-supportsInterface}."
      },
      "symbol()": {
        "details": "See {IERC721Metadata-symbol}."
      },
      "tokenURI(uint256)": {
        "details": "See {IERC721Metadata-tokenURI}."
      },
      "transferFrom(address,address,uint256)": {
        "details": "See {IERC721-transferFrom}."
      }
    },
    "version": 1
  },
  "userdoc": {
    "kind": "user",
    "methods": {},
    "version": 1
  }
}